:020000022000DC
:10600000882D0020F58A020001100300E18A0200B9
:10601000E18A0200E18A0200E18A02000000000039
:10602000000000000000000000000000058C0200DD
:10603000E18A020000000000758B0200E18A020084
:10604000158E0200158E0200158E0200158E0200BC
:10605000158E0200158E0200158E0200158E0200AC
:10606000158E0200158E0200158E0200158E02009C
:10607000158E0200158E0200158E0200158E02008C
:10608000158E0200158E0200158E0200158E02007C
:10609000158E0200158E0200158E0200158E02006C
:1060A000158E0200158E0200158E0200158E02005C
:1060B000158E0200158E0200158E0200158E02004C
:1060C000158E0200158E0200158E0200158E02003C
:1060D000158E0200158E0200158E0200158E02002C
:1060E000158E0200158E0200158E0200158E02001C
:1060F000158E0200158E0200158E0200158E02000C
:106100004FEA4102B2F1E04324BFB3F5001CDCF1D9
:10611000FE5C0DD901F0004C4FEAC0024CEA507011
:10612000B2F1004F40EB830008BF20F00100704740
:1061300011F0804F21D113F13872BCBF01F0004043
:10614000704741F480114FEA5252C2F11802C2F175
:10615000200C10FA0CF320FA02F018BF40F00100F6
:106160004FEAC1234FEAD32303FA0CFC40EA0C00A8
:1061700023FA02F34FEA4303CCE77FEA625307D1E5
:1061800050EA01331EBF4FF0FE4040F4400070471C
:1061900001F0004040F0FE4040F40000704700BFB6
:1061A00053B94AB9002908BF00281CBF4FF0FF317E
:1061B0004FF0FF3000F00CB8ADF1080C6DE904CEE3
:1061C00000F01AF8DDF804E0DDE9022304B07047BE
:1061D000704700BF10F8012B11F8013B012A28BFBE
:1061E0009A42F7D0D01A7047034613F8012B002AC1
:1061F000FBD1181A013870472DE9F04786468C46C6
:106200000846089E154674461946002B40F0C28089
:106210008542B2FA82F245D94AB1C2F1200300FAAE
:1062200002FC2EFA03F3954043EA0C0C94404FEA2B
:10623000154EA8B2BCFBFEF8230C0EFB18CC08FBD5
:1062400000F943EA0C43994528D9EB1808F1FF37C8
:1062500004D2994502D9A8F102072B44A3EB090304
:10626000A4B2B3FBFEFC0EFB1C330CFB00F044EAB3
:106270000344A04214D92C190CF1FF3304D2A042DC
:1062800002D9ACF102032C44241A43EA07401EB1A0
:10629000D440002334607360BDE8F0874746DDE7F3
:1062A0006346F1E792BB431B01214FEA154EAFB2A3
:1062B000B3FBFEFC200C0EFB1C330CFB07F840EA82
:1062C0000343984562D9EB180CF1FF3004D298458E
:1062D00002D9ACF102002B44A3EB0803A4B2B3FB38
:1062E000FEFC0EFB1C330CFB07F744EA0344A742F9
:1062F0004ED92C190CF1FF3304D2A74202D9ACF1CC
:1063000002032C44E41B43EA0040C0E7C2F120032F
:1063100020FA03F1954090402EFA03F303434FEA2D
:10632000154EAFB2B1FBFEFC0EFB1C10190C0CFBA2
:1063300007F841EA0041884504FA02F422D96918B5
:106340000CF1FF3004D2884502D9ACF10200294497
:10635000A1EB08019BB2B1FBFEFC0EFB1C110CFB78
:1063600007F743EA01439F420ED9EB180CF1FF31C6
:1063700004D29F4202D9ACF102012B44DB1B41EA5B
:10638000004192E76046E3E76146F7E76046A3E72E
:106390006346B7E7834206D916B9002108467BE772
:1063A000C6E900E0F9E7B3FA83F78FB9834201D376
:1063B000724508D8BEEB020460EB030301209C4643
:1063C0001EB9002168E73846FAE7C6E9004CF8E74D
:1063D000C7F1200CBB4022FA0CF41C432EFA0CF13E
:1063E00020FA0CF3B84001434FEA14490EFA07F5BE
:1063F000B3FBF9F81FFA84FE09FB18300B0C08FBFD
:106400000EFA43EA00439A4502FA07F240D9E3182C
:1064100008F1FF3004D29A4502D9A8F102002344C2
:10642000A3EB0A0389B2B3FBF9F809FB183308FBA5
:106430000EFE41EA03418E452CD9611808F1FF3365
:1064400004D28E4502D9A8F10203214443EA004058
:10645000A0FB0298A1EB0E014145CE46434602D374
:1064600006D14D4504D2B9EB020E68EB04030138A6
:10647000002EA6D0B5EB0E0261EB030101FA0CFC75
:1064800022FA07F34CEA0303F940C6E9003198E722
:106490004046C5E74346D9E7F8B510EE904A34F0D8
:1064A00000472DED048B10EE103AB0EE609A0DD13E
:1064B00083F480035B0013F5000F40F2098230EE95
:1064C000098AB0EE480ABDEC048BF8BD23F0004009
:1064D000B0F1FF4F02D8B7F1FF4F08D9B3F17E5F9B
:1064E000EDD184F48004640014F5000FE5E7002B7F
:1064F00001462DDAB7F1974F0CD3B7F1FF4F2AD0F1
:106500000225B4F17C5F41D1002BC0F28F80B1EE47
:10651000C08AD6E7B7F17E5F31D3FA15C2F1960291
:1065200047FA02F505FA02F2BA423DD1B7F17E5FB1
:106530004AD1002C80F2D281B5EE400AF1EE10FA79
:1065400050D1D80FBDEC048BBDE8F84009F030BD48
:10655000B7F1FF4F3DD1B0F17E5F00F0B98108D9AE
:10656000DFED977A002CB4BFB0EE678AB0EE498AAF
:10657000A7E7002C80F2AF81B1EE498AA1E7B4F120
:10658000804F34D0B4F17C5F5CD0002523F04042D2
:10659000B2F17E5FB0EEC08A3FD1002CBCBFB7EE37
:1065A000007A87EE088A29E0B7F17E5FC1D0002526
:1065B000B4F1804FEAD1B0F1BF4F1AD2B0F1D05F41
:1065C00029D920EE008A7CE705F00105C5F1020516
:1065D000EEE7B7F17E5FACD0B4F1804F4FF000052D
:1065E000E9D08EE7B7EE007A87EE008A69E70025EA
:1065F000E1E7B0F1FF4FB0EEC08A35D1002BBFF616
:1066000060AFA0F17E50284316D1BDEC048BBDE8ED
:10661000F84009F0DDBCB0EEC08A28BB002C1EDAC1
:10662000002B8FDA6B1E584258418BE7B0F1FF4FB9
:10663000B0EEC08A40F05581012D7FF442AFB1EE3B
:10664000488A3EE7B0F1FF4FB0EEC08A3FF439AF61
:10665000B0F17E5FD9D000283FF433AFD5E7012DEC
:1066600008BFB0EE408A2CE7DE0F013E55EA060275
:10667000CBD0B7F19A4F40F24081524B984208D8A4
:10668000002C0BDA0020BDEC048BBDE8F84009F0CB
:106690007FBC4D4B984208D9002CF3DC0020BDECA8
:1066A000048BBDE8F84009F063BCB7EE007A38EE21
:1066B000478ADFED467ADFED469A3FA1D1E9000136
:1066C00068EE278AFFF71CFD07EE900AB5EE007A08
:1066D00048EE477AB6EE007A07EEC87A68EE087A96
:1066E000DFED3C6A27EE277AF0EE687A47EE667AAD
:1066F00068EE299A39EEA77A17EE103A23F47F63F1
:1067000023F00F0307EE103A77EE699A77EEE97AF5
:10671000013D24F47F643543B7EE007A24F00F0482
:10672000BFEE008A18BFB0EE478A07EE104A67EE48
:10673000890A39EE477A07EE903A47EE270A07EEC4
:10674000104A67EE877A30EEA77A17EE101A002902
:1067500021F000431ADDB3F1864F09D9B5EEC08AA6
:10676000F1EE10FA4CBF012000208CE70120E4E09C
:1067700036D1DFED196A37EE677A70EEA66AF4EE6D
:10678000C76AF1EE10FAE9DC86232DE0134A934242
:1067900007D9B5EEC08AF1EE10FA4CBF01200020F7
:1067A0007DE71DD137EE677AB4EEE07AF1EE10FAAC
:1067B000EADBEEE7AFF30080E13D55555555D53F97
:1067C00000000000F3FF7F3F0700803F70A5EC361C
:1067D00000AAB83F3BAAB83F3CAA38330000164392
:1067E000B3F17C5F6FD9DB157E3B4FF4000018419D
:1067F0000844C0F3C753A14A7F3B1A41024007EE49
:10680000102AC0F3160040F40000C3F1170318412A
:10681000002977EEC77AB8BF404237EEA07ADFEDA5
:10682000986ADFED985A9FED986A17EE103A23F4B4
:106830007F6323F00F0307EE103A77EE677A67EE77
:10684000266A70EEE70ADFED917A67EE277A9FED10
:10685000907A40EE877AB7EE000A36EEA77A77EEA6
:10686000666A77EEE67A67EE076A47EE277A16EEF3
:10687000A56ADFED885A46EE265A9FED876A15EE27
:10688000A66ADFED865A46EE265AB0EE476A05EE56
:10689000E66AF0EE006A67EE065A36EE666AC5EE04
:1068A000866A76EEE77A77EEC77A30EE670A10EE00
:1068B000103A03EBC053B3F5000F06DA09F012FBF0
:1068C00020EE088AFDE50020A7E700EE103AF7E782
:1068D000B7EE008AF5E59FED728AF2E5B0EE408AE8
:1068E000EFE5B0F17E5F3FF48CAE00283FF4B7AE29
:1068F000002D3FF48AAE0225002613F0FF4F01BFA2
:106900009FED687A68EE077A6FF0170317EE901A1A
:106910004FEAE15218BF00237F3A1A44C1F316032D
:1069200061498B4243F07E5706DD60498B427FF719
:106930001DAF0132A7F5000700205D4B03EB80037C
:10694000D3ED005A5B4B06EE107A75EE867AF7EEC1
:10695000006AC6EEA74A36EE657A27EE245A15EE8F
:10696000101A194006EE901A534901EA670141F0E6
:10697000005101F5800101EB405107EE901A06EE3F
:10698000E77A77EEE57ADFED4D5A36EE676A65EE27
:10699000057A06EE667A9FED4A6A47EE865A9FEDC3
:1069A000496A05EEA76ADFED485A46EE275A9FED81
:1069B000476A05EEA76ADFED465A46EE275A27EEEC
:1069C000247A36EE856A67EEA77A26EE076A05EE28
:1069D000A76A66EEA64AF0EE085A74EEA57A77EE3C
:1069E000867A17EE901A194007EE901A77EEE55A5C
:1069F00027EE277A75EEE45A66EEA76A36EE656AE8
:106A000006EE057A9FED336A76EE877A17EE901AD6
:106A1000194007EE901A77EEE66A27EE866A37EE9F
:106A2000667ADFED2D6A2D4967EEA67ADFED2C6AD6
:106A300047EE267A01EB800191ED007A77EE877AB6
:106A400007EE102A274A02EB8002D2ED005A76EEBA
:106A5000276AB8EEC77A76EEA56A76EE876A16EEF2
:106A6000902A134006EE903A36EEC77A37EE657AF2
:106A700037EE467A77EEC77A4AE600BF000080FF1D
:106A80000072313F4CBB31330EEADD358CBEBF3571
:106A90001872313F55B38A38610B363BABAA2A3E98
:106AA000000000000000804B71C41C00D6B35D00E4
:106AB0000838030000F0FFFF00F0FFDF55326C3EA6
:106AC00042F1533E05A38B3EABAAAA3EB76DDB3E17
:106AD0009A99193F0040763FC623F6B8F83703006D
:106AE0004F38763F00380300014807F0DBB900BF9C
:106AF00068000020014807F0D5B900BF5800002009
:106B000007B50BF008FD4FF47A72A0FB020302FBFD
:106B10000131C00B074A40EA4140106000234FF4A6
:106B200000420548CDE9002308F03CF8002003B0FE
:106B30005DF804FBA8090020E8010020014B18784B
:106B400000F036B90E180020044B1A78824202D0A9
:106B50001870FFF7F3BF0020704700BF0E18002029
:106B600008B50BF0D8FC4FF47A72A0FB020302FBCD
:106B70000131084AC30B126843EA41439B1A47F2AA
:106B80003052934204DDBDE808400120FFF7DCBF2E
:106B900008BD00BFA809002008B50BF0BCFC4FF4ED
:106BA0007A72A0FB020302FB0131C00B044A40EAE7
:106BB00041401060BDE808400020FFF7C5BF00BF9E
:106BC000A8090020F8B5044610B900252846F8BDEC
:106BD0000378002BF9D00F4E0F4FBE420FD30D4E4E
:106BE000BE42F2D230680BF07DF930B135682146F3
:106BF0002868FFF7EFFA0028E8D00436F0E730689D
:106C00000BF070F918B135682B68A342DED004365A
:106C1000E3E700BF303F0300503F030070B5194C5D
:106C2000194D8CB00022002303A9204606F030FE47
:106C300008B10CB070BD2B68059E5868DDE90312E1
:106C400009F081FA0028EDDBFF238DF81830B6FA41
:106C500086F35B0907908DF820300BF05CFC4FF455
:106C60007A72A0FB020302FB0131C00B40EA4140F3
:106C7000C90B8DE8030006ABCDE90A010FCB00F08C
:106C8000B1F8CFE778020020C00900201FB50A4CF8
:106C90002468A46884420DD183F00103CDE9011278
:106CA000039306480022002301A906F099FD044839
:106CB00007F0F8F804B010BDC009002078020020E9
:106CC000B0090020014B036001207047AC0900208F
:106CD00038B5044628B3144D2B6883421FD02BB11E
:106CE000986818B183685B6803B198470F49104BE7
:106CF0008C4214BFED2100210122002009F03DFA51
:106D000000280DDBA0682C6048B1836809491B6826
:106D100098472B68986883689B6803B19847002060
:106D200038BD6FF01200FBE7C00900207C3403007F
:106D3000AC0900208D6C02000148FFF7C9BF00BFFD
:106D40007C34030008B5054905480BF080FA054B73
:106D500000221A60BDE80840FFF7EEBF1D6C02007C
:106D6000B0090020AC090020F8B50F4D0F4E761B7E
:106D700007460C4605EBC105C6F3C706A64201DC73
:106D800000200CE02A683B689A4209D13C716B688C
:106D900038461B68984718B1431E012BF0D9F8BD3F
:106DA00001340835EAE700BF843B0300B43B03002D
:106DB0001FB50023CDE90233044B8DF80C0001A868
:106DC000019309F0E7F905B05DF804FB983403007E
:106DD0000268034B9A420CBF08300020704700BF86
:106DE0009834030084B030B589B00CAC84E80F004F
:106DF000002301930CAD084B00930FCD02AC0FC4E0
:106E000095E8030084E80300684609F0C3F909B077
:106E1000BDE8304004B070479C3403000268034B67
:106E20009A420CBF08300020704700BF9C3403001A
:106E30001FB50023CDE90233044B8DF80C0001A8E7
:106E4000019309F0A7F905B05DF804FBA434030031
:106E500082B038B504A981E80C000546114806F057
:106E600023FB0446A0B16B68012B0CD0022B05D08C
:106E7000A3B9BDE8384002B009F0A2B909F0A7F9FA
:106E800000282046F5DCBDE8384002B009F091B991
:106E90006FF00400BDE8384002B070476FF0850025
:106EA000F8E700BFB238030082B010B502A981E84C
:106EB0000C0004460B4806F0F7FA78B16368022B21
:106EC00004D00020BDE8104002B0704709F07FF9FF
:106ED0000028CCBF002001206060F2E76FF00400C2
:106EE000F0E700BFB238030002460249024809F049
:106EF000C6B900BF0C0A0020103503000246024943
:106F0000024809F0BCB900BFF409002000350300B5
:106F100002460249024809F0B2B900BFDC0900206C
:106F2000F034030002460249024809F0A8B900BF44
:106F3000C4090020E03403000D4A52F82030013328
:106F400042F820300B4A0123117883400B430A4951
:106F50000978DBB2137023EA01030849084A09786B
:106F600050780B43181A537018BF0120704700BFA8
:106F7000380A0020121800201018002011180020D4
:106F8000BF01002010B5114A52F82030002B19DD46
:106F9000013B42F820300E4A2BB913780121814081
:106FA00023EA010313700B480B4B047810780B4A4B
:106FB0005978127820EA040010435870401A18BF1C
:106FC000012010BD6FF01500FBE700BF380A00205C
:106FD0001218002010180020BF01002011180020F6
:106FE000044A012312788340D8B213401B1A584236
:106FF000584170471218002010B5084B084A187005
:10700000084B51781C78084B1B7823EA040318437B
:107010005070401A18BF012010BD00BF1118002089
:10702000BF0100201018002012180020074B00227A
:107030001A70074B074A1978074B50781B7823EAD8
:107040000103181A537018BF01207047111800204F
:1070500010180020BF01002012180020A0F1E0034A
:10706000072B03D82030C0B2FFF766BF064B0622BD
:1070700013F8011F19B1013AFAD1002070471870B6
:107080000028F8D0F9E700BFC1010020A0F1E0031B
:10709000072B10B405D820305DF8044BC0B2FFF7C1
:1070A00071BF0023064A194612F8014F0133A0426E
:1070B00008BF1170062BF7D100205DF8044B704714
:1070C000C1010020A0F1E003072B03D82030C0B29B
:1070D000FFF786BF064A002312F8011F884204D03A
:1070E0000133062BF8D1002070470120704700BF04
:1070F000C1010020024B00221A605A60704700BF95
:10710000C0010020B0F5805F10B510D209490023FE
:1071100001EB4302B2F8014024B10133062BF7D151
:10712000002010BDA2F801000028F6D0F8E76FF0AB
:107130008500F6E7B201002030B50023074C194660
:1071400004EB43020133B2F80150854204BF517091
:107150009170062BF4D1002030BD00BFB201002099
:10716000024B00221A605A609A607047B3010020F7
:10717000074A002302EB4301B1F80110814204D019
:107180000133062BF6D1002070470120704700BF65
:10719000B2010020042810D8094A52F820300133E7
:1071A00042F82030074A0123117883400B43DBB2B9
:1071B0001370054A0020537070476FF01500704738
:1071C000240A00200F180020A8010020042814D849
:1071D0000B4A52F82030002B0FDD013B42F82030E3
:1071E000084A2BB913780121814023EA0103137067
:1071F000054B12785A70002070476FF015007047E9
:10720000240A00200F180020A8010020014B5880FC
:1072100099807047A8010020014B1881D9807047E0
:10722000A8010020024B00221A605A601A727047AF
:10723000A901002000487047BF01002000487047A6
:10724000B201002000487047A801002008B503469D
:107250000069034903630BF026F8002008BD00BF56
:1072600035730200F8B52DED028B0C46B1F9041010
:10727000054631B99FED2D0A84ED000ABDEC028B65
:10728000F8BDD4E9027657EA06004CD0A888C019A8
:1072900046F10006121A63EB0603012A73F100009F
:1072A00041DB4FF47A7607EE901AA2FB062106FB2B
:1072B0000311E888D30B43EA414398424FEAE13196
:1072C0004FF000028A41B8EEE78A14DB98B16A7A7F
:1072D0008AB107EE100A07EE903AB8EEC70AF8EE48
:1072E000E77A07EE102A87EE800AF8EE470AFFF7E2
:1072F000D3F828EE008A2B7ADFED0D6A07EE103AFC
:10730000B8EEC77A27EE087AC7EE267A94ED007AAF
:1073100077EE877ABDEEE70AB8EEC00A77EEC07A5C
:10732000C4ED007AAAE7DFED017AEFE70000000084
:1073300000007A442DE9F0412DED028B076B84B0FB
:107340007E6804460BF0E7F80D4602460B46804681
:1073500004F138013046FFF785FF2B46424604F121
:1073600048013046F0EE408AFFF77CFFFDEEE87AF8
:10737000B0EE408A17EE903AFDEEC07A1BB217EEDF
:10738000902A15B2EBB1DFED2F7A3288F4EEE78A5E
:10739000F1EE10FA4CD9DFED2C7AF4EEE78AF1EE3B
:1073A00010FA47F6FF7158BF0B4600200021CDE9C7
:1073B0000201B5FA85F1490900913846022101F030
:1073C0006BFFDDB1DFED1F7A7288B4EEE78AF1EE74
:1073D00010FA2FD9DFED1C7AB4EEE78AF1EE10FA3D
:1073E00047F6FF7348BF2B4600200021CDE902017C
:1073F000012100913846022101F04EFFB4F93C30E2
:1074000013B9B4F94C30BBB1307AC0034FF47A727F
:10741000002300F2E7300021FEF7C2FE02460B46D1
:10742000204604B0BDEC028BBDE8F04106F0A8BDDB
:10743000064BBAE7054BD7E704B0BDEC028BBDE8BD
:10744000F08100BF000000C700FEFF460080FFFF84
:10745000044B1B78013B012B01D800F0A1B900209F
:10746000704700BFC8010020044B187828B10128DC
:1074700001D109F03EBA6FF085007047580A00202C
:10748000044B187828B1012801D109F03ABA6FF0FD
:1074900085007047580A00201FB5FFF7D9FF00226A
:1074A000CDE9022202A98DF8080003C9044C6B46FD
:1074B00083E8030084E80300104604B010BD00BF59
:1074C000580A002082B00DF1080C0CE9030019469F
:1074D0009DF80030012B104606D0022B06D053B980
:1074E000064A02B007F0D0BB054AFAE7019B054AFD
:1074F00002B007F0C9BB044AF3E700BFFE3803003F
:1075000003390300073903000E390300044B1878D0
:1075100028B1012801D109F0FCB96FF0850070474E
:10752000580A002070B588B0FFF792FF0023CDE91C
:10753000053305AE8DF8140096E803000D4C01AD3F
:1075400094E80C0085E8030009F0DBF880B909F045
:1075500000F995E803000A23324684E80300FFF7A8
:10756000B1FF94E8030003AB83E8030000F004F8E4
:1075700008B070BD580A00207FB56B4683E8030051
:1075800093E80300002206AB03E90300039202A87C
:10759000034A029208F0FEFD07B05DF804FB00BF4D
:1075A0008435030030B585B078BB11B9002005B033
:1075B00030BD1848184D01682C6841F00103036084
:1075C00032B344F00100994228601BD04FF480731D
:1075D000ADF800308DF802200AF09DFF4FF47A726A
:1075E000A0FB020302FB0131C00B40EA4140C90B82
:1075F000CDE9020104AB13E90F0005B0BDE830404E
:1076000000F04CB88442E1D1D0E76FF01500CEE72E
:107610009942F8E7640A0020680A0020014B1968C3
:1076200009F0F4B8640A002007B519B1002003B0CE
:107630005DF804FB0028F9D101A8FFF743FB0028FF
:10764000F4DD019B1B68002BF0D10148EFE700BF80
:107650009035030073B50F4B06460C4615461AB11C
:107660000D4A126843F8212053F82410002009F035
:10767000CDF858B1DDE906230021CDE900233046DD
:107680002B46224609F0D4F8002801DD6FF0850072
:1076900002B070BD600A0020640A002010B58AB0F4
:1076A0006C4684E80F0000230593064B049394E88E
:1076B0000F000AAC04E90F0004A808F06BFD0AB043
:1076C00010BD00BF9C35030084B030B589B00CAC50
:1076D00084E80F00002301930CAD084B00930FCDFD
:1076E00002AC0FC495E8030084E80300684608F084
:1076F00051FD09B0BDE8304004B07047A435030027
:107700000268034B9A420CBF08300020704700BF4C
:10771000A435030008B5044800F0B6FD002818BFE2
:107720006FF0150008BD00BF61770200014B1878AB
:10773000704700BFC9010020084B1B780B2B4FF08E
:1077400001000AD8984010F4CD6F05D110F4016FF4
:107750000CBF01200020704702207047C9010020A3
:107760000A2808B5024613D00A4B0B491870FFF7D8
:10777000E3FF02280AD10B78032A08BF43F0010374
:107780000B70BDE80840054806F08CBB0023F7E706
:1077900008BD00BFC9010020131800207800002098
:1077A00008B5FFF7C9FF022806BF034B1878002071
:1077B00000F0010008BD00BF1318002010B50948F3
:1077C000094C05F071FE206048B1084B0849B02211
:1077D00001F02AFD206809F055FC002010BD6FF073
:1077E0001500FBE7793903006C0A0020A835030077
:1077F0007F39030038B504460D46FFF797FF0B2885
:107800000BD8DFE800F01E1E0A0A1E060A0A0A0A42
:107810000A1EBDE8384000F015BD4FF47672002313
:10782000094806F0C5F909482146006800232A46A0
:1078300009F032FC044610B1034806F085F92046F1
:1078400038BD6FF01204FAE7B00200206C0A002085
:10785000014806F079B900BFB0020020014B1B6857
:10786000184700BF8800002030B585B004460D469B
:107870001022002168460AF010FF02238DF8023022
:107880002A46044B01932146684607F0C5FA05B025
:1078900030BD00BF5D78020080B505460E46174634
:1078A000984606F0A1FE03460BF05EFADFF818904A
:1078B000044649F80030424630463946A84754F855
:1078C000090001F041F900BF0800000008B50446B6
:1078D000EFF31183202383F31288BFF36F8F04F03B
:1078E0001FFA204601F01EF9024809F0E9F909F0F3
:1078F00099FBFCE72F3A03002DE9F047058B04467E
:107900002807904611D4022905F0070540F0CC80E5
:10791000204609F0FDF978B10138218B042811D8EF
:10792000DFE800F0C2106D85950001290CBF45F01D
:10793000100545F02005258388F31188BFF36F8F6C
:10794000BDE8F08701F0070AAA4500F0A5800027EE
:10795000B9463E46A368002B00F0BC8041F0080108
:10796000218388F31188BFF36F8FA168002900F08D
:10797000BA800D68002900F0B680D1F80480334643
:1079800052462046C047002D76D02B6829461D461A
:10799000F0E701F007035A1F012A1BD8002221F04B
:1079A0000701062B276889B2C4E9002209D13B46AA
:1079B00003E0628B013262831B68002BF9D141F036
:1079C00002012183204609F0A3F900287AD041F072
:1079D000200176E0042B0AD121F0070189B221832E
:1079E000204609F095F910B141F020012183218B47
:1079F00001F0070AAA454FD00027B946AAE7236934
:107A000021F0070141F00601062DD3F800902183F3
:107A10002DD1B9F1000F3FD041F00801218388F347
:107A20001188BFF36F8F3A492046C84729E021F0FB
:107A30000701236941F0040189B2042DD3F80490B1
:107A40002183E6D000273E464FF0040A82E721F06A
:107A50000701236941F0050189B2052DD3F808908B
:107A60002183D6D000273E464FF0050A72E7002753
:107A70003E464FF0060A6DE72B4687E7B9F1000F47
:107A8000D1D1EFF31188202383F31288BFF36F8FD6
:107A9000238B23F008032383258BEA062ED525F0BC
:107AA0001003238305F007056669218B002EBFF6BE
:107AB00070AF00232768C4E9003321F0070141F0CB
:107AC00001012183218B01F0070AAA454FF000092B
:107AD0007FF440AF002F9CD041F00801218388F350
:107AE0001188BFF36F8F002FC8D03D6839463346E9
:107AF0005246204609F038F92F46F4E7AB067FF5E9
:107B00001BAF25F02003238305F0070500E700BF26
:107B1000950D0300014B036000207047C035030042
:107B2000F0B40C4B0C4E5F6A0C4BB34203D36FF0B6
:107B30008500F0BC70475D68BD4209D31C693CB14B
:107B400095F802C00579AC4502D12346F0BC184730
:107B50002433EAE7700A00207C0300205803002049
:107B60002DE9F047134CDFF85080DFF850900546C0
:107B70000E461746444503D36FF08500BDE8F087F5
:107B80006268D9F824309A4212D3A36983B19078FD
:107B90002979884205D13A4631462846BDE8F04762
:107BA00018475279012A03D13A4631462846984768
:107BB0002434DFE7580300207C030020700A0020F3
:107BC0002DE9F0410B4CDFF8308005460E46174694
:107BD000444502D36FF0850009E063690BB9243492
:107BE000F6E73A463146284698470028F7D1BDE8DF
:107BF000F08100BF580300207C03002010B504462C
:107C000009F086FA10F1780F00D050B9054A2046E5
:107C100009F096F9D2F8C43023EA0003C2F8C43060
:107C2000002010BD700A0020024B00221A605A602A
:107C3000704700BF2B0B002070B50B4B0B4CA342C1
:107C400001D3002070BD196A1E7F00220439D5B20D
:107C5000AE4201D82433F2E7013211F832508542A6
:107C6000F5D10120EEE700BF580300207C0300207F
:107C700008B509480378C3F341130A3350F8233099
:107C80003BB100F1080200F110019847C043C00F5A
:107C900008BD1846FCE700BF700A002004282DE943
:107CA000F14FDFF8A09004460F4616D001282DD1E1
:107CB000DFF88C8098F8B93043B300F06DFD1F4DAC
:107CC0004D4520D2D5F820B04FF0000A2B7F5FFA47
:107CD0008AF6B34204D82435F2E7FFF7A5FFE7E7B9
:107CE0000BEBC6060AF1010A307909F011FA0246D7
:107CF000307909F025F9D8F8C430002A23EA0003C6
:107D0000C8F8C430E2DA002388F8B9300B4D4D458D
:107D100008D30B4B1B6A6BB13946204601B0BDE856
:107D2000F04F1847EB681BB13A4621462846984762
:107D30002435ECE701B0BDE8F08F00BF5803002008
:107D4000700A00207C03002073B5C4B263060D46A0
:107D50008DF8074007D02046FFF76EFF78B10D4B36
:107D600093F8BA0058B10B4E204655B101F096FE7B
:107D7000F3691BB10DF1070108209847012002B0FB
:107D800070BD01F0B3FEF369002BF7D00DF10701D0
:107D90000920F2E7700A002073B586788DF800603C
:107DA000037942791C4C43EA0223ADF80230C378D0
:107DB000304603F003038DF8043009F0C1F8D4F81D
:107DC000C430184205460BD0304600F0C7FC3046A0
:107DD000FFF714FF0AF086FA10B9962006F0C2FBEE
:107DE000684601F037FE10F1780F03D010B1002083
:107DF00002B070BD9DF8000001F0B4FE10F1780FE4
:107E000001D00028F3D1D4F8C43001202B4384F8EA
:107E1000B900C4F8C430EBE7700A00202DE9F04740
:107E2000A34EB36904460F461546FBB9237803F009
:107E30001F03012B00F09D80022B00F0048133BB57
:107E400094F900002A686178002834DA062912D0F3
:107E500008292BD0D9B901231370517096F8C3307B
:107E60005B0043F00103137002232AE198470028C6
:107E7000DCD100200DE06288100A011F0129844630
:107E800005D9072803D8716AD2B20C781CB96FF0F3
:107E90001500BDE8F0874E78664503D19A4200F0A0
:107EA0000B8101332144F0E70B780AE196F8BA30F0
:107EB0001370012305E101390829E8D801A353F81B
:107EC00021F000BF5D7F02008F7E02006B7F020009
:107ED0008F7E0200E97E02008F7E02008F7E02000C
:107EE0008F7E0200F57E0200A07801F0A1FD00283F
:107EF000BFD0CCE76388756A63BBFFF795FE6388E4
:107F000086F8BA30F369002BB3D06A49032098474A
:107F1000AFE76B78042B10D0052B11D0022B04D1C6
:107F20006F796388BB4208BF01202B781D442B78F2
:107F3000002BEED10028AAD0DFE795F80380F4E704
:107F40006388BB42F1D1B8F1000FEED12846FFF7AC
:107F500023FFEAE7FF270020B846E8E76388012B04
:107F600095D1002386F8C33083E76388012B8ED137
:107F7000F8E796F8BA30D5F800C0002B87D0756ABC
:107F8000A38894F804E02A46107800283FF47FAFD5
:107F90005178022904D192F80480F04500F29380D0
:107FA0000244F1E78CF800208CF80120396060E78A
:107FB000154494E00B2A7FF46AAF00274FF0FF08C6
:107FC000C146BA4606E06B78042B0FD0052B21D0B2
:107FD0002B781D442B78002BF5D1F36913B1514652
:107FE00007209847002F7FF444AF50E795F80280B0
:107FF000A38895F803909845EAD163889945E7D11D
:10800000B8F1070F1CD806EB0803AA4683F8BB900B
:108010000127DDE7A3884345DAD1A3784B450AD091
:10802000AF78384600F09AFB3846FFF7E7FDB0FA24
:1080300080F77F09CCE72846FFF7AEFE0746C7E783
:10804000AA460027C4E794F900206378002A18DACA
:10805000002B7FF41CAF24792D6863060AD02046DC
:10806000FFF7EAFD00283FF412AF96F8BA30002B74
:108070003FF40DAF2946204601F058FD00236B70F8
:10808000F2E6012B08D0032B7FF401AF6388002BAD
:108090007FF4FDAE012103E0618800297FF4F7AE93
:1080A000A088FFF751FE00287FF4E3AEEFE600BFA3
:1080B000700A00202A0B0020022829607FF4F4AE09
:1080C0004B883B60D5E694F9000062780028BFF643
:1080D00071AF002A3FF466AF0A2A7FF4D8AE2A783F
:1080E000002A3FF4D4AE697804297FF461AFA978FF
:1080F0008B427FF45DAF072B96BF9B19002393F84B
:10810000BB308CF80030D4E613B5164C237DF3B9A0
:10811000E268A168019201AB802008F01FFF019A7C
:10812000A3681344A360E3689B1AE3606BB962B170
:108130002369E2889A4208DD94F8C82093FBF2F1A3
:1081400002FB11330BB90123237502B010BD0023CC
:108150001A4619468020237502B0BDE8104001F090
:108160002BBD00BF700A002030B585B00023024649
:108170000D460193002858D1002935D108220B461D
:108180000DEB020108F0DDFF002804DA802001F089
:1081900085FC05B030BD2A4C029A2260039A6260C9
:1081A00004F13802A2609DF90820BDF80E30257553
:1081B000002AC4E903550ADB802B04D9802001F092
:1081C0006DFC0020E3E713B1C4E90333E1E7FFF7F7
:1081D0004FFD0028DAD0E28823699A42D4BFE260DA
:1081E000E360FFF791FFD4E7154CD4E90215002DA9
:1081F00001AB04DC08F0A5FF0028CADAC6E72A466E
:1082000008F09FFF0028D9DB019AA3681344A360FC
:10821000E3689B1AE360002BBBD104F13803A36031
:10822000FFF726FD0028DCD1B0E78028B1D1044B50
:10823000DA68002AD5D11B7D002BD2D1A9E700BF77
:10824000700A0020044B93F8C3300BB108F088BFCC
:108250006FF00C00704700BF700A0020054B064A03
:108260009A62064ADA62064A1A63064A58629A61B4
:1082700000207047700A00201D7E0200217B020052
:10828000C17B0200617B02002DE9F3410446474DAA
:1082900047484FF0FF334FF0FF3205F05BFB95F896
:1082A000B830002B7BD16B6A83B142482C62E86105
:1082B0006E6A01F09BFD01F089FB041E10DA3C4858
:1082C00005F0C0FB204602B0BDE8F08100F0BEF82A
:1082D000FFF7C4FF6B6A002BE7D14FF0FF34EEE7E6
:1082E00000F07CFA041EEADB7378012B5AD1F37993
:1082F000002B57D00026684685F8C830ADF802300C
:108300008DF804608DF8006001F0A4FB041ED6DB3C
:10831000802768468DF8007001F09CFB041ECEDBC0
:108320002549304601F04EFD041EC8DB224938467F
:1083300001F048FD041EC2DB204CDFF88480444578
:108340001AD3002001F00EFC041EB8DBD5F8C430AF
:10835000802043F00103C5F8C43001F003FC041E83
:10836000ADDBD5F8C43043F48033C5F8C430012305
:1083700085F8B8300024A2E7276A0026227FF3B2EE
:108380009A4201D82434DAE707EBC30257F83310D6
:10839000107901F017FD01360028EFD09DE76FF04E
:1083A00077048CE76FF0150489E700BF700A00209E
:1083B0003C0200209D7C02006981020058030020DD
:1083C0007C03002030B51F4B8BB005AA03F11005CC
:1083D00018685968144603C40833AB422246F7D1E3
:1083E0001B7823701022002101A80AF056F91222EE
:1083F000002115480AF051F9102101A808F0AEFF3C
:1084000000281BDD0828B8BF0820093801AB0E4939
:108410001A18002012F8013F0AAC04EB131403F001
:108420000F0328336B44013014F8144C13F8143C38
:108430000C7008284B7001F10201EBD102480BB01F
:1084400030BD00BF583A0300151800202DE9F04F49
:10845000724B93F800B087B0BBF1000F03D07048A7
:1084600007B0BDE8F08F6E4C00264FF0011AB04601
:108470003546B14623783BB96A4B02349C42F3D16E
:10848000664A01231370EAE76378052B1BD8DFE8FF
:1084900003F08E03C38E1D39402304A88DF810B05D
:1084A000ADF812308DF814B008F01DFE40B108236D
:1084B00004A8ADF8123008F016FE08B1ADF812B0FD
:1084C000BDF81230E37123781C44D3E7E378002B26
:1084D000F9D1A3786BB108F101085FFA88F8F2E7E7
:1084E0006B689C4207D024354F4B9D42F8D3002047
:1084F000B6E74E4DF8E7AB68002BECD0414620467E
:108500009847E8E7002DF2D000222B7F9A42EED266
:10851000296AA07801EBC2010B79984201D001329F
:10852000F3E70127E07800F003008DF814002079CC
:1085300094F805C040EA0C20ADF8120094F902004E
:108540000028FBB228DA07F110004FF0010C0CFAFA
:1085500000F010EA0A0F26D143F080008DF81000D9
:1085600004A8CDE90213019208F0BDFDDDE9012167
:10857000039BC0B99DF81020A27012F0800F18BFA5
:1085800010330A7118BFDBB24FF0010214BF9A40DA
:10859000BA404AEA020A96E70120B84010EA0A0FF8
:1085A00001D11846DAE70137102FBBD1B7E7032E08
:1085B0001AD1FFF707FF074650B1FDF715FE024637
:1085C00030B11028A8BF10223946A01C0AF057F875
:1085D00023786FF00201E218091B04EB5303D14228
:1085E00013D50136F6B26EE7002EF1D1B9F1000FC6
:1085F0003FF47DAFA4EB090389F80230C3F30723EE
:1086000089F8033089F80480EBE702F801BC13F81D
:10861000010902F8020DE2E7A14654E71418002010
:10862000D0020020580300207C03002058030020C3
:1086300010B5094B00211A461C78844204D15C68AD
:1086400014B102EB811010BD0131042903F1400384
:10865000F2D10020F7E700BF3C0B00202DE9F341E9
:1086600050F8283C10F82C6C103304460AD10369EA
:1086700050F8202C980736D5D2B9590715D50023C4
:1086800044F8283C54F8283C10330BD054E90775C3
:1086900054F8148C09F026FE00284FD02E482146AD
:1086A00009F0F1FD02B0BDE8F08143F0040323615D
:1086B00054F8241C01AB304608F050FC10B16FF0A8
:1086C0001503DDE7019A54F8243C134444F8243C94
:1086D00054F8203C9B1A44F8203C54F81C3C1344AA
:1086E00044F81C3CCEE754F8241C01AB304601F0A2
:1086F000DFFA0028E3D1019D54F8243C2B4444F8D0
:10870000243C54F8203C5B1B44F8203C54F81C3CAF
:108710002B4444F81C3C002DB1D0304601F06CFBDA
:10872000B5FBF0F303FB1055002DA8D154F8203C05
:10873000002BA4D0304601F003FBA3E744F8180C4B
:10874000A4F1100005F000FA002DABD042463946E6
:108750003046A847A6E700BFE807002010B5EFF3B2
:108760001184202383F31288BFF36F8FFFF760FF1C
:1087700050B14368103307D16FF08B03436000F1B1
:108780002C01044809F07FFD84F31188BFF36F8F3B
:1087900010BD00BFE8070020F8B50E4C04252027C7
:1087A000EFF3118687F31288BFF36F8F636810337E
:1087B00007D16FF08B030848636004F12C0109F0C6
:1087C00062FD86F31188BFF36F8F013D04F1400411
:1087D000E6D1F8BD3C0B0020E807002070B50A4C3C
:1087E0000A4E00253146204609F031FD0122A4F150
:1087F00010001146013509F0ACFC042D04F14004D1
:10880000F0D1002070BD00BF680B00205D86020023
:1088100030BFFFF7FDBF00BF2DE9F0410B4EDFF881
:10882000348006EB0807CC1B054632460849204633
:1088300009F025FFA01942460021083C09F02DFF50
:108840002C6707F10800BDE8F08100BF00000000C0
:10885000BC31030004000000054B9A699B689A42F2
:108860001FBF044A536843F080535360704700BFF2
:10887000CC17002000ED00E0134B9A6A12F0007F45
:108880009A6A14BF1E201D2012F0807F9A6A18BFBA
:108890001F2012F4002F9A6A18BF212012F4802F93
:1088A0009A6A18BF222012F4003F9A6A18BF232048
:1088B00012F4803F9A6A6FEA02426FEA12429A62A9
:1088C00018BF2420704700BF00ED00E010B5194B21
:1088D0000246986A9C6A10F4805F14BF1720162025
:1088E00014F4006F9C6A18BF1820A40509D5986B72
:1088F000986A000404D51AB19A6A22F400429A6276
:1089000019200C4B9A6A12F4806F9A6A18BF1A20C9
:10891000D2050CD49B6A13F4005F18BF1C20054AD3
:10892000936A43F47F43936200230B7010BD1B20B6
:10893000F5E700BF00ED00E010B51C4B0246986A59
:108940009C6A10F0100F14BF1120102014F0080FB3
:108950009C6A18BF1220A40709D5586B986A0006B4
:1089600004D51AB19A6A22F080029A6213200F4B42
:108970009A6A12F0010F9A6A18BF142012F0200FA1
:108980009A6A18BF1520D40658BF9B6A074B9A6A8B
:10899000920642BF5A6A22F400525A629A6A42F020
:1089A000FF029A6200230B7010BD00BF00ED00E0D3
:1089B00070B5444B5B689CB00646C3F308030025C2
:1089C00085F31188BFF36F8F02F07F40B0F17F4FC6
:1089D00011D102F00C0008280DD010074CBF0E4634
:1089E00001250022033B8DF80720032B05D8DFE883
:1089F00003F01E5C60592E46F3E700249DF8073013
:108A00009BB96822314602A809F039FE099B002D66
:108A100053D0C3F3080222B96FEA53236FEA43230A
:108A2000099302A9204608F0E1FA1CB070BD254B5D
:108A3000DA6A9107E1D4DA6A002ADEDBDA6A5200E8
:108A4000DBD55A69B16942F480725A61BFF34F8F26
:108A5000BFF36F8F5A6931F8021C22F480725A6199
:108A6000BFF34F8FBFF36F8F4DF60272914209D063
:108A70009A6AD2B242B10DF107010120FFF75CFF03
:108A80000446BBE73468B9E79A6A12F47F4F05D011
:108A90000DF107010120FFF719FFF1E79B6AB3F51C
:108AA000803FAAD3FFF7E8FEEAE70DF107010020B7
:108AB000E4E70DF107010020EDE723F4FF7323F055
:108AC0000103ADE700ED00E0044B5A6942F01002EB
:108AD0005A615A6922F008025A61704700ED00E0BD
:108AE000EFF30880EFF3098101B57246FFF760FFED
:108AF00001BD00BF03F048FB202080F31188084827
:108B00004FF40061401880F30988EFF314800221CC
:108B1000084380F31488BFF36F8F00F0CDF8000096
:108B200048200020BFF34F8F0549064BCA6802F466
:108B3000E0621343CB60BFF34F8F00BFFDE700BF80
:108B400000ED00E00400FA05084B9B6883420BD15E
:108B5000EFF3058343B1064B5A6842F080525A60E6
:108B60005A6A22F400425A6205F044BDCC17002034
:108B700000ED00E020498A6882F8BDE04FF0300047
:108B80001044EFF3098C80E8F01F1EF0100F03D1A2
:108B900002F17C0080EC108A202080F31288BFF361
:108BA0006F8F164F4FF000668A698A603E60106FC3
:108BB000134C206092F9BDE0506F0023536780F39F
:108BC00011881EF0100F03D00023E1EE103A03E0ED
:108BD00002F17C0090EC108AEFF3148323F004037D
:108BE00083F31488BFF36F8F02F1300090E8F01F19
:108BF0008CF3098870470000CC17002004ED00E0DA
:108C00003C0C00201EF0040F0CBFEFF30880EFF3C4
:108C10000980816911F8021C0229FFD001B5724652
:108C200008F0EAF901BD00BF40B2002807DB044AA2
:108C30004109012300F01F00834042F821307047B2
:108C400000E100E040B200280CDB4309064900F0D7
:108C50001F0020330122824041F82320BFF34F8FB1
:108C6000BFF36F8F704700BF00E100E0054B420982
:108C700000F01F0053F82220012303FA00F01040F7
:108C8000704700BF00E100E040B20028A8BF00F13B
:108C9000604001F10101B8BF064B4FEA4111ACBF82
:108CA00000F5614000F00F00C9B2B4BF195480F85C
:108CB0000013704714ED00E0144A08B5144B22F07D
:108CC0007F029A60BFF34F8FBFF36F8FD3F8882076
:108CD00022F47002C3F88820D3F8882042F4A0025E
:108CE000C3F888204FF04042C3F83422BFF34F8FBF
:108CF000BFF36F8F0023E1EE103A04F089FC05F01A
:108D0000B1FD00F07BF804F0C3FC00BF006002007E
:108D100000ED00E042F8203C009B42F81C3C019B27
:108D200042F8183C0A49029B42F8143C4FF0807309
:108D300042F8043C21F00101002342F8081C203ACB
:108D400043674FF47D430265C0F8BC30704700BFF5
:108D500099780200104B9B6883421AD1EFF305808B
:108D6000B8B9EFF31181202282F31288BFF36F8F1D
:108D70001A7B22F002021A73EFF3148323F0040328
:108D800083F31488BFF36F8F81F31188BFF36F8F64
:108D900070476FF015007047CC17002000B50E46E5
:108DA00015460023E1EE103AEFF3148323F0040399
:108DB00083F31488BFF36F8FBFF36F8F084B026F7D
:108DC0009860084B1A602C4686F309880020064BF1
:108DD00098472046002100220023044C204700BF72
:108DE000CC1700203C0C00201710030099780200DB
:108DF000014B10221A61704700ED00E00448002387
:108E00002021C2180133302B82F80013F9D17047AA
:108E100000E100E008B5EFF30583064A103B02EBE2
:108E2000C30152F8330049688847BDE80840FFF79E
:108E300013BD00BF882F0300024B034A03480121E2
:108E400000F066B80000042000000020C0350300D8
:108E5000084AC2F898000B6823F01F03034343F04D
:108E60001003C2F89C308B6843F00103C2F8A030B5
:108E7000704700BF00ED00E02DE9F043DFF86080AF
:108E800085B00E461F4604464FF00009B14523DA6F
:108E90006068D8B13FB1411E08421BD11F2819D9C3
:108EA0002368194216D12368019308F0D7F8A36804
:108EB00003430393D8F89050C5F30725D0B2013D82
:108EC000A84207D801A9FFF7C3FF421C09F1010915
:108ED0000C34DBE76FF01502104605B0BDE8F083F7
:108EE00000ED00E0044B0522C3F89420BFF34F8F40
:108EF000BFF36F8F704700BF00ED00E0BFF35F8FDF
:108F0000024B0022C3F89420704700BF00ED00E040
:108F100010B5034C01232278FFF7AEFF207010BD7F
:108F2000271800202DE9F043534B544CD3F89030D0
:108F30002568C3F307239D4285B000F29A80FFF7AE
:108F4000DDFF00200C2685421AD14D4C4D4F257077
:108F50006846FEF7DFFDDFF82081DFF82C9106463A
:108F60000025AE4213D1237843490020D1F8902048
:108F7000C2F30722934276DBFFF7B4FF002042E002
:108F8000616806FB0011FFF763FF0130DBE7009823
:108F900000EB05114FEA051CCB683B40B3F5000F11
:108FA00048D00AD8B3F5001F30D0B3F5800F36D0C3
:108FB000B3F5801F10D00135D3E7B3F1807F42D0E5
:108FC000B3F1007FF7D150F80C3088684A6808F098
:108FD00045F840F4802009E050F80C3088684A6871
:108FE00008F03CF840F0885040F43020CDE90123EF
:108FF0000390D8F890302078C3F30723013B9842C0
:109000002AD96FF0150005B0BDE8F08350F80C3098
:1090100088684A6808F022F840EA0900E6E750F854
:109020000C3088684A6808F019F840F0E06040F4B5
:109030000030DBE750F80C3088684A6808F00EF81A
:1090400040F08270D2E750F80C3088684A6808F027
:1090500005F840F08870C9E701A9FFF7F9FE237809
:1090600001332370A7E7C1F89830C1F8A00001339D
:109070007CE74FF0FF30C6E700ED00E0CC350300A1
:10908000271800200000F0FF0000081108B506496D
:10909000064821F00701C1F1005202F5802207F0D5
:1090A000D0FD002008BD00BFFF380020400C00208C
:1090B000044A0123C2F840354FF080420020C2F834
:1090C0007835704700E0014020B1034B800143F048
:1090D00001031847704700BFD031030010B50C469C
:1090E0000146084807F06CFF50B1022C08D150F837
:1090F000083C2BB11B691BB1BDE810400068184744
:1091000010BD00BF640C0020F8B590F90030002BB2
:1091100004460D46174602DB6FF01500F8BD0388C4
:1091200023F0E0039BB240F201629342F4D14688FF
:1091300001791248360A07F035FF0028ECD0212EBD
:1091400004D0222E0FD06FF08500E7E70368E18896
:109150005B685B6813F8092F914294BF29602A600D
:109160003B600020DAE7E38850F80C2C9A4294BF69
:109170002A602B6050F8103CF2E700BF640C00201E
:109180002DE9F04104460E4601791448174607F0D0
:1091900009FF0546D0B194F9002000686378002AE1
:1091A0000DDA012B16D155F8083C9BB11D688DB125
:1091B0003B4632462146AC46BDE8F0416047092BAC
:1091C00008D155F8083C2BB15D68F0E76FF012004C
:1091D000BDE8F0816FF08500FAE700BF640C002065
:1091E00010B50C4601460F4807F0D0FE50B1611E85
:1091F000052907D8DFE801F0070603070D0F012353
:1092000000F8043C10BD002300F8043C00F8033CC7
:10921000F8E70123FAE710F8033C002BF2D0002313
:10922000F4E700BF640C002010B50469C4E9001223
:10923000A36000236361064B2061596804F11402A6
:1092400011B9C3E9002210BD0A605A60FBE700BFF4
:10925000640C00207FB50D4D0D4E4FF0FF324FF0E6
:10926000FF3301A9284604F013FB0028F5D1094C6F
:10927000B442F2D2236813B1019A934203D1D4E9E4
:10928000013101A898470C34F2E700BF50020020DA
:10929000BC31030080310300F0B585B0DDE90C542A
:1092A00017461E46019023469DF828008DF80800B9
:1092B0002C432A468DF80910ADF80A70039608D0A1
:1092C00009F052FD074908580749884204BF0022A7
:1092D0001346064801A904F083FA00EAE07005B0DD
:1092E000F0BD00BF08000000E80700205002002089
:1092F000020600F07F0312D5082B05D1010700F00C
:109300000F0306D50E48704710F0780F12D100F009
:109310000F034C2000EB43100A4B18447047082BF6
:1093200005D1020700F00F0306D50748704710F07B
:10933000780FF6D000207047044800EB43107047C8
:10934000B80D00206C0C0020D80E0020D80D002095
:109350000149024808F097BF940C0020F004002057
:109360000146014808F0EABEC0020020024800227F
:10937000002304F0B7BB00BFC002002013B51248A1
:1093800000F0FCFE114B98421AD1114803F0FEFC8C
:109390000024104803F040FD0F49104800944FF09E
:1093A000FF334FF4806204F083FD0D490B4808F051
:1093B0009FFF0C480C4908F04AFF204602B010BD40
:1093C0006FF00400FAE700BFD19502000000AD0B7A
:1093D0008C3A0300F0350300481C0020F004002004
:1093E0007E3A0300940C0020ED96020010B50E4961
:1093F000BFF35B8F002351E8002F012A03D141E81E
:1094000000300028F7D1BFF35B8F0CD151F8044C2A
:109410001439204607F05AFD783004D12046BDE8C3
:10942000104007F02FBD10BD8C0C002038B5002473
:1094300064F07F00C0B2FFF75BFF013407F03CFE31
:10944000082CF5D10E4D0024E0B2FFF751FF03695F
:1094500003B90561013407F02FFE082C05F1400522
:10946000F2D1084807F028FE074BD3F87C2212B946
:10947000064AC3F87C22064807F01EFE002038BDCD
:10948000FC120020B80D00206C0C0020FC0E002007
:10949000D80E002010B5054CFFF768FF20B14168D9
:1094A000204608F06CFDF7E710BD00BF2002002049
:1094B00007B500230E48002201A904F063F990B11A
:1094C000FFF7E8FF0A480022002301A904F05AF937
:1094D00038B90198042340600374FFF741FFFFF798
:1094E00037FF002001E00198406003B05DF804FB05
:1094F00020020020022810B511D8094B1C5CFFF790
:10950000D7FF60B1002202740472FFF729FF054BF8
:1095100093F824301BB1BDE81040FFF719BF10BD10
:10952000893A03006C0C0020F8B587780646384667
:10953000FFF7DEFE3B06F578044612D5002D43D139
:10954000FFF7B6FF034600283ED00122A57702743C
:10955000032202739C60FFF703FFBDE8F840FFF7AA
:10956000F7BE4DB1012D2FD1FFF7A2FF034658B32F
:10957000657705740573EDE7FFF79AFF20B3B278BE
:10958000124B12F0800F02F0080111D041B1D3F854
:10959000A836E36001230374022303738460DAE7CF
:1095A00002F00F02142101FB0233D3F80836F0E772
:1095B00011B1D3F8A837ECE702F00F02142101FB38
:1095C0000233D3F80837E4E7F8BD00BF007002406B
:1095D000F0B5064689B01422002103A809F05DF811
:1095E0003378013B052B21D8DFE803F07A0314140C
:1095F0006A1603238DF814300024FFF759FF034641
:10960000A0B1047400F10802DDE9050182E803005D
:1096100018461DE00423EDE7B7783846FFF768FEEB
:10962000837A044623B1013B022B43D909B0F0BD34
:109630003B06F57813D5002DF8D1FFF739FF034627
:109640000028F3D00122A5770274032202739C60E4
:10965000FFF786FE09B0BDE8F040FFF779BE55B1CF
:10966000012DE3D1FFF724FF03460028DED0657704
:1096700005740573EBE7FFF71BFF07460028D5D0FD
:109680000123037402230373846004F10C01B07896
:1096900007F07CFD134AE168B2F88C328B4206D9A0
:1096A0005B1AA2F88C3201F0B7F83846D0E7A2F87E
:1096B0008C52FAE7304609B0BDE8F040FFF734BFFE
:1096C00001A801F087F89DF80530052B04D19DF81D
:1096D000043013F0600FA9D0034B059301248CE7ED
:1096E00002248AE76C0C0020D80D00202DE9F043FD
:1096F000A64CDFF89C9285B08046FFF737FE074600
:1097000010B905B0BDE8F08394F825303A7C3BB938
:10971000002A00F0868079689D4808F030FCECE76C
:10972000042A42D8DFE812F07D000500000116018E
:1097300040013B7BBD68032B37D8DFE803F0023DD7
:109740005A5F6E69934B002232607260D3F88014C6
:109750003170D3F884147170D3F88814D3F88C0462
:1097600041EA00217180D3F89014D3F8940441EABF
:109770000021B180D3F89814D3F89C3441EA032334
:10978000F3800823EB6030687168834B03C3114694
:109790002B68687A984796F90030002B08DBF3882D
:1097A00033B1A4F88C3201F037F879684846B4E751
:1097B0000023A4F88C32F8E76B7F002BF5D02B7FC9
:1097C000002BF2D000266E774FF0FF3273482E77D1
:1097D0004FF0FF3307F083FC6B6901936B68CDE9B1
:1097E000023601A9687A00F01FFD6C4807F079FC89
:1097F000DBE72B680121687A9847D6E7AB7A6BB92B
:10980000EB7F5BB965484FF0FF324FF0FF3307F055
:1098100066FC01F007F8614807F063FC2B68022141
:10982000E9E73A7A042AC0D8DFE802F0590323674F
:10983000730000F02BFC05460028B6D100F066FB53
:10984000BFF35B8F5649012351E8002F002A03D153
:1098500041E800300028F7D1BFF35B8FA5D141F874
:10986000085C41F8105CE0696361143907F0B3FAF1
:109870009BE7002565F07F00C0B2FFF739FD037A52
:1098800013B1407A01F032F90135082DF2D194F884
:1098900054311BB194F8550101F028F90025E8B2C4
:1098A000FFF726FD037A13B1407A01F01FF9013565
:1098B000082DF4D194F874321BB194F8750201F0BC
:1098C00015F9002000F0C6FB012384F82530236839
:1098D000002B3FF46AAF00210220984765E700257E
:1098E00084F8255001F068F8FFF780FD2368002B0D
:1098F0003FF45BAF29460420EFE7002B3FF455AF60
:1099000000F0CEFB2368002B3FF44FAF0021052071
:10991000E3E72268002A3FF448AF002B3FF445AF4D
:1099200000210620904740E708F110054FF0FF3373
:109930004FF0FF32284607F0D2FBFFF777FD2846AD
:1099400007F0CFFB58F8283C002B3FF42EAF002146
:109950000120C2E794F874327BB1012584F8895262
:1099600084F88852FFF7A4FD38B10E4A05740573D8
:109970008260FFF7F5FCFFF7EBFC58F8283C002B62
:109980003FF413AF00210A20A7E700BF6C0C0020B2
:109990002002002000700240700C0020A40C002067
:1099A0008C0C0020D80E002008F0E0F901F004F83B
:1099B00000F0A2FAFFF76EFDFFF738FD08F0CFF9CF
:1099C000014800F0DBFBF0E6D195020038B5164DFA
:1099D00095F824402CBB05F1380008F027FB204601
:1099E00001F0D8F922460121E8612720FFF74CF960
:1099F00008F0B5F9FFF71AFD044610B9012385F800
:109A000024300A4B1B680BB1FFF7A2FC4FF08043D8
:109A1000D3F83834DB0702D50020FFF76BFD204672
:109A200038BD0024FBE700BF6C0C0020C002002002
:109A3000074B93F824203AB193F82530002B14BF3C
:109A400000206FF0120070476FF01200704700BFE7
:109A50006C0C002038B5104B93F824300446C3B189
:109A600005782846FFF744FC10B96FF0150038BDA3
:109A7000457223798372638843602078618810F08F
:109A8000080F02D14B1E0B42EFD107F07AFB0020EA
:109A9000EDE76FF01200EAE76C0C002038B5124BCE
:109AA00093F824200546CAB193F82530B3B1FFF7E7
:109AB0001FFC0446A8B1837A012B12D007D9023BC0
:109AC000012B07D96369A3610020E06038BD00F075
:109AD000AFFEF7E7284600F051FEF3E76FF0120003
:109AE000F4E76FF01500F1E76C0C002038B50E4B71
:109AF00093F82420054682B193F825306BB1FFF727
:109B0000F7FB68B115F008040AD1284600F058FEAA
:109B1000284601F023F8204638BD6FF01200FBE71D
:109B20006FF01500F8E700BF6C0C002038B50C4B47
:109B300093F8242005460C4662B193F825304BB1CA
:109B4000FFF7D6FB48B144B1284600F01FFE207055
:109B5000002038BD6FF01200FBE76FF01500F8E74A
:109B60006C0C002070B5134E96F824300446C3B137
:109B7000FFF7BEFB0546B8B1230705D4204600F029
:109B80001FFE204600F0EAFF2B7A83B901232B72D7
:109B900096F825300BB9002070BD204600F0A6FFD6
:109BA000F9E76FF01200F7E76FF01500F4E76FF0D8
:109BB0007700F1E76C0C00202DE9F043DFF8EC8032
:109BC0001E4698F8243085B0074689461546002B76
:109BD00061D098F82530002B5DD003065ED5FFF7E5
:109BE00087FB0446002859D0037A002B56D04FF04B
:109BF000FF334FF0FF3208F1380007F070FAA37F0F
:109C00004BB108F1380007F06CFA6FF00A042046F7
:109C100005B0BDE8F083A37AC5B13BB30123A377B8
:109C20004FF0000801A93846CDE90195CDF80C8028
:109C300000F0FAFA1B4B984229D084F81E801EBB14
:109C40006FF00404184807F04CFAE0E7E27F02B135
:109C5000E577002BE2D100F0F1FD8742DED000F085
:109C6000E1FD114807F03DFA0024D0E7B8F80A30CA
:109C7000AB42F0D96268B5FBF2F302FB1353002B41
:109C8000E9D10123E377E6E7C6F80080D8E706B11B
:109C900035600024D6E76FF01204B8E76FF01504C2
:109CA000B5E700BF0000AD0BA40C00206C0C002039
:109CB0002DE9F0411D46204B174693F824200E460F
:109CC000002A33D093F8253083B3030631D401B989
:109CD0007FBBFFF70DFB044658B3037A4BB34FF03D
:109CE000FF3316484FF0FF3207F0F9F9E368BB4243
:109CF000984628BFB84646B93FB905B12B600F4812
:109D000007F0EFF90020BDE8F081A1694246304636
:109D100008F0B5FCA3694344A361E368A3EB08031F
:109D2000E360002DEBD0C5F80080E8E76FF012008B
:109D3000E9E76FF01500E6E76C0C0020A40C0020AA
:109D400070B51E4D95F82420034682B395F8252062
:109D50006AB31B062ED4FFF7CBFA044650B3037A3E
:109D600043B34FF0FF334FF0FF3205F1380007F0F7
:109D7000B6F9E368B3B9012663692677A361637F07
:109D800083B1FFF795FB30B905F1380007F0A9F969
:109D90006FF00B0070BD067484600673FFF7E0FA85
:109DA000FFF7D6FA064807F09CF90020F2E76FF0BB
:109DB0001200EFE76FF01500ECE700BF6C0C00201D
:109DC000A40C002010B5084B93F824300C462BB19E
:109DD000FFF78EFA28B10460002010BD6FF012006A
:109DE000FBE76FF01500F8E76C0C0020014B1860E2
:109DF000704700BF6C0C002008B5074B93F8243067
:109E000023B1FFF775FA20B1406808BD6FF012006A
:109E1000FBE76FF01500F8E76C0C00204FF0805363
:109E2000D3F83021082A06D1D3F83431052B04D8D1
:109E3000034AD05C7047002070470120704700BF84
:109E40008D3A0300064B10F0800FA3F1D80208BF33
:109E5000134600F00F00182202FB0030704700BFCD
:109E600014160020EFF31180202383F31288BFF330
:109E70006F8F0A4BD3F8001C032261B949F2753188
:109E8000C3F8001CC3F8142DC3F8001C80F311881C
:109E9000BFF36F8F7047C3F8142DF7E700E006405B
:109EA000EFF31180202383F31288BFF36F8F0A4BE7
:109EB000D3F8001C61B949F27532C3F8002CC3F81D
:109EC000141DC3F8002C80F31188BFF36F8F704707
:109ED0000022C3F8142DF6E700E006404FF080534F
:109EE000D3F83031082B02BF024B0022C3F81C2CE0
:109EF000704700BF00700240024A00231360024A0C
:109F000013707047F41600202C18002008B54A4B37
:109F10004FF40062C3F80024FFF780FF08B1FFF799
:109F2000A1FF4FF08053D3F83031082B18D1EFF355
:109F30001180202383F31288BFF36F8F3F4BD3F838
:109F4000001CC02200296ED149F27531C3F8001CF3
:109F5000C3F8142CC3F8001C80F31188BFF36F8F73
:109F6000354B0122C3F80025D3F800241205FBD598
:109F70004FF40062C3F800244FF08053D3F830311F
:109F8000082B17D1EFF31180202383F31288BFF33E
:109F90006F8F2A4BD3F8001C002947D149F2753244
:109FA000C3F8002CC3F8141CC3F8002C80F31188EC
:109FB000BFF36F8FFFF732FF30B1FFF771FFFFF78D
:109FC0002DFF08B1FFF74EFF4FF08053D3F830312B
:109FD000082B194B0AD140F2E372C3F80028402243
:109FE000C3F80428BFF36F8FBFF34F8F8022C3F8ED
:109FF0001C250122C3F83025114B40F2FF121A60D4
:10A00000104B00211960104B1970FFF767FF0F4BC1
:10A0100019700F4B02221A70FFF700FF50B1BDE814
:10A020000840FFF73DBFC3F8142C95E70022C3F8A2
:10A03000142CBBE708BD00BF0070024000E00640E2
:10A04000F0160020EC160020281800202A18002006
:10A050002C180020094B002210B51A70084A094B31
:10A06000094C002808BF1346C4F800332720FEF728
:10A07000DBFD0123C4F8043510BD00BF2B18002000
:10A08000FDFFDF01FDFFFF0100700240034B187868
:10A09000012894BF00200120704700BF2C18002029
:10A0A00010B54FF0FF324FF0FF33154803F080FD3D
:10A0B000EFF31181202383F31288BFF36F8F114BCD
:10A0C0001B7803F0FF0483B10F4BD3F8002412F484
:10A0D00000720AD10120C3F82C05D3F82C05D3F85F
:10A0E0000004800502D5C3F82C25002481F31188D3
:10A0F000BFF36F8F024803F027FD204610BD00BF5D
:10A10000A00200202B1800200070024010B5EFF3D1
:10A110001184202383F31288BFF36F8F144B1B78B5
:10A1200003F0FF00CBB1134AD2F82C35EBB100237A
:10A13000C2F82C354FF08053D3F83031082B0CD1B6
:10A140000D4BD3F8001CC02261B949F27531C3F838
:10A15000001CC3F8142CC3F8001C84F31188BFF34F
:10A160006F8F10BDC3F8142CF7E71846F5E700BF52
:10A170002B1800200070024000E00640F8B51C4B90
:10A180001C7894BB1B4A106001221A7040F2FF1722
:10A19000264664F07F0514F0080FEDB214BF39466F
:10A1A0004021284606F0EDFF2846FFF74BFE01341C
:10A1B000092C867506730661EBD1002440F2FF1767
:10A1C000254614F0080FE6B214BF39464021304648
:10A1D00006F0D7FF3046FFF735FE0134092C8575B0
:10A1E00005730561EDD10448F8BD0448FCE700BFE4
:10A1F0002C180020F41600200000AD0B0500AD0B5C
:10A20000084B10F0800F00F00F0114BFD3F8102599
:10A21000D3F8142501238B40134214BF01200020E2
:10A22000704700BF007002402DE9F8430246EFF38B
:10A230001187202383F31288BFF36F8F030703D1A5
:10A24000184B1B78834229D1174B184E1C68356870
:10A25000104606F08EFFE443A4B24FF001092C43F0
:10A2600009FA00F814EA08041AD11046FFF7EAFDCB
:10A2700080F80C90034607C91C6183E807009C75B1
:10A280000B4B0C4845EA080580223560C3F80421D1
:10A2900087F31188BFF36F8FBDE8F8830648F7E7AF
:10A2A0000648F5E72A180020F0160020EC160020DA
:10A2B00000E100E00000AD0B0A00AD0B0B00AD0BA0
:10A2C00010F0080F074B06D0D3F8C00410F4803FFD
:10A2D00018BF0020704700F00F0000F5947053F88D
:10A2E00020007047007002402DE9F74FAB4BAC4E99
:10A2F000D3F85421DAB10022C3F85421D3F804135F
:10A30000890214D58DF80420D3F82025ADF8062055
:10A31000D3F8C034002B336814BF4FF001224FF440
:10A320008072134333609F4B01A81B6898479B4B77
:10A33000D3F8604134B10022C3F86021D3F86C44F3
:10A34000C3F86C44D3F828214AB10022C3F828216D
:10A35000954B187806F00DFF012383401C43DFF86E
:10A360006482924F98F8005098F9009015F0080117
:10A3700043D1B9F1000F05F00F032EDA8C4A52F8E1
:10A38000230020B342F823101422534303F18043E7
:10A3900003F51C33D3F80836864A117803F001031D
:10A3A0004B401370FFF79AFD834803F0CDFB28461E
:10A3B000FFF748FD837D032B37D1284606F0D9FEF1
:10A3C000012303FA00F03B6823EA00033B60DFF857
:10A3D000D4A101254FF006095DE0784A52F8230028
:10A3E0000028F4D042F823101422534303F1804391
:10A3F00003F51C33D3F80837CEE7B9F1000F674BEC
:10A4000009DBD3F85021002AE1D00022C3F8502103
:10A41000D3F8A837C0E7D3F82C21002AD7D00022E0
:10A42000C3F82C21D3F8A836B6E7037BDBB928465E
:10A4300006F09FFE012303FA00F03B68B9F1000F1C
:10A4400023EA00033B6001DA882DC0D106238DF892
:10A45000043000238DF80730524B8DF806501B68EE
:10A4600001A89847B3E7002DB1D14C4B0122DA6423
:10A47000ADE794FAA4F03268B0FA80F005FA00F380
:10A480001A430F28326024EA03043A6840F39C80A0
:10A49000134200F0A980002CEBD1404BD3F80021EF
:10A4A0005AB1C3F80041464B1C703F4B1C7001234E
:10A4B00001933C4B01A81B689847384BD3F85821AF
:10A4C000002A2ED00022C3F85821D3F80044C3F844
:10A4D0000044E30508D53A4B01221A700223019388
:10A4E000304B01A81B689847A50508D5344B0022BE
:10A4F0001A70032301932B4B01A81B689847600532
:10A500000FD52F4B1A7862B100221A70234B01220B
:10A51000C3F808259A6504230193224B01A81B6800
:10A5200098471E4BD3F85C3103B3234B9B681BB990
:10A5300098F80030590619D0184B0022C3F85C2156
:10A54000D3F88034184A23F07F0313703B6823F05C
:10A5500001133B60336823F4803343F0010333601D
:10A56000052301930F4B01A81B6898473A6833688D
:10A570001A4200F0EB8010480022002303F018FB81
:10A58000002840F0E380054BD3F82C35002B7BD01E
:10A59000094803B0BDE8F04F03F0D6BA007002409E
:10A5A000F0160020F41600202A180020EC160020D7
:10A5B0000871024028180020A002002030710240DB
:10A5C0002B1800202918002013407FF464AF60F09E
:10A5D0007F018DF804908DF806108DF80730DAF8B9
:10A5E000003001A8984756E7A0F110018DF80490BB
:10A5F0008DF806108DF80750F1E749F080052846E0
:10A60000FFF720FC4368B0F814A001689A4528BF02
:10A610009A4601F06043B3F1005F044604D0544809
:10A62000524608F02CF8524922686368524422606E
:10A63000A268A3EB0A03D20768B2636053D5BAF1EC
:10A64000000F52D1002323734FE011464FF0000A50
:10A65000604545D1003B18BF0123002A42D0504538
:10A6600040D9012303FA09F32BEA03033B600623D5
:10A670008DF804303F4B8DF8065002221B68A275FE
:10A680008DF8072001A89847D7F800B033681BEA77
:10A6900003093FF47DAF19F0012314BF93FAA3F926
:10A6A00099FAA9F9B9FA89F9B9F10F0FA5D9A9F160
:10A6B0001005EDB22846FFF7C5FB04462846FFF714
:10A6C000FFFD6368B4F814C022689842BDD81B1A15
:10A6D00000EB020E11466360C4F800E08246B7E763
:10A6E0000023BAE768B2002BACD04FF08053D3F808
:10A6F0003031082B02BF204B8222C3F81C2C336858
:10A7000088F80050012202FA09F923EA09033360AC
:10A71000236915F0080F53442361174B19D1002802
:10A7200005F00F054FF0140000FB0530A9BF0A35F6
:10A7300003EB8503C0F80017C0F804A7AFBF43F8C8
:10A740002520C0F80016C0F804A65A6003B0BDE882
:10A75000F08F0028B5BFC3F8A016C3F8A017C3F840
:10A76000A4A6C3F8A4A7B4BF5A629A64EEE700BFD8
:10A77000FC140020F416002000700240024B40F44C
:10A780008070C3F81805704700700240030713D4A7
:10A7900000F00F0310F0800F084A0BBF03F5887319
:10A7A00003F5847302EB830252F8230008BF50685C
:10A7B000003818BF01207047002070470070024029
:10A7C000034BC3F80C0540F48070C3F80C057047C8
:10A7D000007002400023036043600E4BD3F88024D6
:10A7E0000270D3F884244270D3F88824D3F88C14F0
:10A7F00042EA01224280D3F89024D3F8941442EA2A
:10A8000001228280D3F89824D3F89C3442EA0323AF
:10A81000C380704700700240014B0122DA64704728
:10A8200000700240014B01221A657047007002401F
:10A83000014B01225A65704700700240014B1878A5
:10A84000704700BF2A18002010B50246EFF31184AC
:10A85000202383F31288BFF36F8F06F08AFC0B4925
:10A86000012303FA00F00B6823EA00030B6012F0E7
:10A87000080101BF02F00F02054B02F5947243F884
:10A88000221084F31188BFF36F8F10BDF0160020E3
:10A8900000700240F7B50146EFF31185202383F3E2
:10A8A0001288BFF36F8FFFF7CDFA0646084606F011
:10A8B00060FC012211F0800F02FA00F22D4818D13D
:10A8C000036832EA03040AD00846FFF7BDFF0323FA
:10A8D000B37585F31188BFF36F8F03B0F0BD2649C0
:10A8E000347323EA020303600B6823EA02030B605C
:10A8F000EDE70B0715D48029204B2FD001F00F0472
:10A9000004F2DA346400C3F80048D3F80448D3F8FA
:10A910000478E4B244F002043C43C3F80448D3F89A
:10A920000438154F04683B6864EA030C1CEA020F04
:10A93000CFD013433B60002333730323B3758DF8EB
:10A9400007300F4B8DF8061024EA0204062204603B
:10A950001B688DF8042001A89847BAE740F2B47448
:10A96000C3F80048D3F80448D3F80478E4B244F0BC
:10A970000404D1E7EC160020F0160020007002401D
:10A98000F416002038B50446094D4FF0FF324FF061
:10A99000FF33284603F00CF92046FFF77BFF2846DB
:10A9A00003F0D2F8034B8022C3F8042138BD00BF66
:10A9B000A002002000E100E0F8B54FF0FF324FF0B8
:10A9C000FF332B4803F0F4F82A4B8022C3F884218C
:10A9D0002720FEF74BF998B1274E284B34681B68A7
:10A9E000240C24041C43012764BB254D40F2FF13B3
:10A9F00033602720C5F80445FEF724F9C5F8004365
:10AA0000204A13788BB11E4B0021C3F80811012195
:10AA1000C3F80026C3F804165960D3F808110029BA
:10AA2000FBD00021C3F808111170154B0022C3F8A8
:10AA30000025FFF753FA0E4803F086F8124B012267
:10AA40001A70F8BD94FAA4F5B5FA85F50F2D2846CD
:10AA5000C6BFA5F11000C0B240F08000030701D4CA
:10AA6000FFF718FF07FA05F524EA0504BCE700BF65
:10AA7000A002002000E100E0F0160020EC1600200B
:10AA800000700240281800202C18002010B5044641
:10AA90004FF0FF324FF0FF33114803F089F82046A2
:10AAA000FFF7F8FE04F00F02012393400D4A14F063
:10AAB000800F14BFD2F81015D2F814156FEA0303F3
:10AAC00015BF0B400B40C2F81035C2F814350448CE
:10AAD00003F03AF8044B8022C3F8042110BD00BFF4
:10AAE000A00200200070024000E100E070B50446C2
:10AAF000FFF786FB68B904F00F02012514F0800F00
:10AB0000144B05FA02F205D0D3F810150A43C3F826
:10AB1000102570BDD3F814150A43C3F81425631E1D
:10AB2000062BF6D8EFF31186202383F31288BFF3A8
:10AB30006F8F2046FFF788FE204606F01AFB064A74
:10AB40001368854023EA0503136086F31188BFF379
:10AB50006F8FDEE700700240EC160020030610B590
:10AB6000044605D4FFF712FE10B12046FFF76CFE35
:10AB7000014BC3F8184510BD00700240084B70B57A
:10AB8000C31A0D4607499B10044659430648402204
:10AB900006F01BFB2B4601462046BDE870401847D7
:10ABA0000C170020B76DDBB65C2E030073B50C4CA0
:10ABB0000C4A4023041B00930D460B460A49A4107F
:10ABC00061430646094806F02CFB011E05DA3046B3
:10ABD0002B4602B0BDE87040184702B070BD00BF00
:10ABE0000C1700208D120300B76DDBB65C2E03003E
:10ABF00010B5EFF31184202383F31288BFF36F8F16
:10AC0000074A136823F00201DB07116002D4012018
:10AC100007F003F884F31188BFF36F8F10BD00BFF6
:10AC20005C170020002270B5012104461046FEF793
:10AC30002BF80F4801F00AFC0E4B984215D101F099
:10AC400015FC26690C49304606F0B2F800280BDBEB
:10AC5000012535642469084904F11C0006F0A8F8B0
:10AC6000002801DBE564002070BD6FF00400FBE705
:10AC700079AD02000000AD0BF43503001FB50022D2
:10AC80000123CDE90223094ACDF800D06B46CDF867
:10AC900004D006F0F4FA002805DB4FF480420023CC
:10ACA000684602F085FF05B05DF804FBAD120300B5
:10ACB00030B4104B0C2202FB003301460020D3E9D4
:10ACC0000E529863EFF31180202484F31288BFF3AF
:10ACD0006F8F1C6C04F0C00444F002041C6480F309
:10ACE0001188BFF36F8F1DB12B46034830BC184746
:10ACF00030BC70470C1700205C2E030010B4EFF33B
:10AD00001182202383F31288BFF36F8F18480168E4
:10AD100041F002040460C80708D482F31188BFF32D
:10AD20006F8F01205DF8044B01F0B8BB4FF08041FC
:10AD3000D1F80C04D1F80C14C907EED5EFF311804B
:10AD400083F31288BFF36F8F0A490B6C03F0C003C3
:10AD500043F002030B6480F31188BFF36F8F82F31B
:10AD60001188BFF36F8F00205DF8044BFFF7A0BF81
:10AD70005C1700200C17002010B1012804D0704788
:10AD8000034B1B6C5B0701D1FFF792BF704700BFFD
:10AD90000C170020024AC3B21C2003FB002070479E
:10ADA0000C1700202DE9F0413849BFF35B8F0746AF
:10ADB000012251E8003F41E800200028F9D1BFF30B
:10ADC0005B8F33B9324933484B60CB608A6006F001
:10ADD00002F87B1E012B2BD8012F07D14FF08043A7
:10ADE000D3F81C3403F00303012B21D007F07AFAC7
:10ADF0000546F8B9284B1B78E3B14FF08043022297
:10AE0000C3F808230646DFF894804FF08044D4F856
:10AE10001824D4F81834D20315D503F00303012BFA
:10AE200001D0012F0FD155B386F31188BFF36F8F77
:10AE3000BDE8F081EFF31186202383F31288BFF37E
:10AE40006F8F0125DFE7ADB1304606F0F8F8D4F892
:10AE50001835002BDBD1D4F80421002AD7D0C4F850
:10AE60000431D4F804310123C4F81835C8F880310E
:10AE7000A360CCE70021212007F0D4FAE7E74FF0E8
:10AE800080430222C3F80423D2E700BF0817002042
:10AE9000F8160020281700203F18002000E100E0ED
:10AEA000F0B54068057B01F01F0444EA45140569CC
:10AEB00087B0002D64D0B2F5001F00F1100506D157
:10AEC0002146284606F03AFF002007B0F0BD01AE4B
:10AED0000027B2F5800F0197776039D1B3F1007F79
:10AEE00014BF052304238DF804300023CDE9046347
:10AEF0000393836823FA01F111F001011AD1B2F131
:10AF0000A07F17D104F01F03620903F5E0732AD074
:10AF1000012A3BD11F4A52F82330DB070AD40DF136
:10AF2000030632462146284601F096FD1A4B984208
:10AF30001CD0029603AA2146284601F04FFC174B6D
:10AF4000984220D101222146284601F0E9FDBBE7C5
:10AF5000B3F1C06F05D0B3F1007F14BF012302230A
:10AF6000C1E70323BFE74FF0A042D4E731462846AC
:10AF700001F0D0FD094B9842DBD06FF00B00A4E745
:10AF80006FF08500A1E76FF015009EE751F82330C0
:10AF9000FFDE00BF000300500400AD0B0000AD0B4E
:10AFA00038B545682B69B3B11035284601F0A2FDCC
:10AFB000044680B90146284601F068FD084B9842D6
:10AFC0000BD108492246284601F040FD22460521C2
:10AFD0000620FDF759FE002038BD6FF00400FBE7A6
:10AFE0000000AD0BE9AF0200420970B5034602D084
:10AFF000012A17D070BD0D4E326951680029F9D071
:10B0000003F01F0301250C689D400029F2D08A68D7
:10B010002A4002D04B68304698472CB1236821461D
:10B020001C46F2E7024EE7E72346F8E7842E0300CA
:10B03000702E03002DE9F043466840F20635D00635
:10B04000337B87B002EA050554BFC2F340100320EA
:10B0500001F01F07B5F5837F144647EA43178DF8C3
:10B06000030045D00FD8062D18D007D8B5B1022D52
:10B0700040D06FF0150007B0BDE8F083B5F5807FD4
:10B08000F7D101250AE040F20222954234D0B5F50D
:10B09000407F33D0B5F5007FEBD102250123220399
:10B0A00003FA01F12CD57368C3F80815326982BB25
:10B0B00007F01F037F0929D0012F77D13E4A02EB09
:10B0C000830284F48033D2F80017C3F30043C4F33F
:10B0D000404444EA430421F4E16144EA800421F05D
:10B0E000070144EA05230B43C2F800370020C2E7FA
:10B0F0000725D3E70425D1E70525CFE70325CDE7CD
:10B10000630344BF7368C3F80C15CFE74FF0A04248
:10B11000D5E710360DF102023946304601F09CFCAD
:10B1200014F4403F80460CD13946304606F004FE08
:10B13000224B9845DAD19DF80210304601F0E4FC2C
:10B14000D4E701AB4FF0000903AA39463046CDE9F8
:10B150000439CDE90199CDF80C9001F03FFB174B74
:10B16000984286D114F4003315D09DF803308DF841
:10B170000E3084F48034C4F300444B4603AA3946AD
:10B1800030468DF80C508DF80D4001F0E1FB0B4B73
:10B190009842CDD06DE7CDE9043303AA0DF1030346
:10B1A00039463046039301F019FBF0E703F5E073ED
:10B1B00052F82330FFDE00BF000300500000AD0B4B
:10B1C0000B680068C01A024B80105843704700BFDC
:10B1D000CDCCCCCCD0E90001014B0C2207F0A9BAB0
:10B1E000C1B102002DE9F74F0569044628464FF02A
:10B1F0000C0A40F8044BFFF7EDFF05F1100027495A
:10B2000007F051F8D4F81080D4F804900025D8F84D
:10B210000830AB4203D8002003B0BDE8F08FD8F867
:10B22000047099F8102001920AFB05F607EB060B53
:10B23000B85906F057FE0028EDD0019ABBF806C0B9
:10B2400042B31CF0010F0CBF2022102242F48032C6
:10B25000B8599BF804104CEA020206F0ABF800283B
:10B26000D9D121692A01096C8C509BF80430012244
:10B2700002FA03FC0A4B01EB0510C0E9023C011D78
:10B28000B8598368DB69002BC5D098470028C2D124
:10B290000135BCE74FF48032DAE700BFCD1503007B
:10B2A000F91303002DE9F047DFF8649006460C46D9
:10B2B00000250C2701F40008B368AB4202D8002037
:10B2C000BDE8F087726807FB05F3D118D0580979FB
:10B2D00083680269D3F818A0BAF1000F14D0B8F14E
:10B2E000000F0FD0126801238B4013420AD084F064
:10B2F000C06202EA090302F0B072D0470028DFD131
:10B300000135D9E72246F4E76FF05700D8E700BFD0
:10B31000400000062DE9F04FDFF81491DFF814A18A
:10B320008846002740F2FF1EFBB2984502D8002055
:10B33000BDE8F08F50F82710C1F3C72313F00803BE
:10B34000C1F3C324C1F3080560D1384E7545345D9F
:10B350004FEA116639D0052E26D0062E3FD1C2F80D
:10B3600010551E4650F827C00CF4004BBBF1000FDF
:10B370001CBF002601236D0901F01F0143D0012DE0
:10B380004ED1554605EB8101CCF3412C2402D1F876
:10B39000005744EA8C04344305EA090544EA4303B0
:10B3A0002B43C1F8003718E0C2F80C5501236E0991
:10B3B00026D0012E30D1DFF87CB001F01F0C012621
:10B3C00006FA0CFCCBF80CC5CCE7052E13D0062EE4
:10B3D0000AD14FF0FF33C2F810350137A4E7042E2D
:10B3E00017D1C2F80855E2E7042E12D14FF0FF330F
:10B3F000C2F80835F1E74FF0FF33C2F80C35ECE73F
:10B400004FF0A04BD9E74FF0A045BBE76FF0150018
:10B410008EE76FF085008BE70023C3F80C35FFDE65
:10B4200001F5E071002353F82130F8E7C43A030036
:10B43000F0F8FCFF000300502DE9FF410569D0F84A
:10B4400004802B6D0646A86C002835D1002B53D004
:10B45000B8F830406A6CEF6C9C4228BF1C46EB6C1D
:10B4600053B1296D41B107F06041B1F1005F03D0E4
:10B47000082C6F6E28BF082400926A6CAC651AB164
:10B48000AA6C002A18BF2246CDE901271BB12B6DFB
:10B49000002B18BF2346002269464046039301F063
:10B4A00023FF184B984229D06FF00401304604B0B6
:10B4B000BDE8F04106F088B9696CEF6CB8F830402F
:10B4C0000A46ABB1834228BF03469C4228BF1C46B4
:10B4D0000029C4D001F06043B3F1005FBFD0082C55
:10B4E00028BF08242246286E07F0C9F82A6EB6E75E
:10B4F000844228BF0446EBE71946D7E704B0BDE80D
:10B50000F08100BF0000AD0B2DE9F04F8DB0046954
:10B510000193436802938B880646980488469146B7
:10B520002DD44FF0FF324FF0FF3304F1100002F042
:10B530003FFBC4F80480D6F804B0D6F810A0DBF8BE
:10B54000083003939AF85D3023B1DAF8003098455B
:10B5500000F0B380B8F804E01EF4006F16D06FF06E
:10B56000850523689B8813F4005304D1636004F1BC
:10B57000100002F0E9FA28460DB0BDE8F08FA3698B
:10B58000002BCED163689942CBD1D4E71EF0090FCE
:10B5900002D06FF01505E4E7CEF34513082BF8D180
:10B5A000D8F80050974B9D42F3D90BF10C0CBCE836
:10B5B0000F0004AF0FC79CE80F0087E80F00039B44
:10B5C000AB4228BF2B461D468F4B9D4217D28F4B57
:10B5D0009D4214D28E4B9D4211D28E4B9D424CD82F
:10B5E0008D4B9D424BD88D4B9D424AD88C4B9D42F2
:10B5F00049D88C498C4B8D4A8D4288BF13461EF02A
:10B60000020F09930EF004033FD0002B14BF032355
:10B6100002238DF82830CEF300138DF82930DBF8A3
:10B620000030D3F80835591C12D01EF0020F03F079
:10B630001F00CEF340014FEA53134FF001022BD10C
:10B640003BB3934240F0D680794B8240C3F80C253F
:10B650009AF85D302BB1584601F00CFE00238AF8B1
:10B660005D303346734A04A9584601F0CFFD724B52
:10B6700098421DD06FF0040573E7704BBFE7704B25
:10B68000BDE7704BBBE7704BB9E7003B18BF012328
:10B69000BFE74FF0A043D8E73BB1012B40F0AD80AE
:10B6A000634B8240C3F80825D2E74FF0A043F8E788
:10B6B00001238AF85D30CAF80080012384F85C30E9
:10B6C000029B996B4A1C03D003F13C0006F0E6F89C
:10B6D000B9F1000F68D1C4F834900023A36304F1DA
:10B6E000480204F1380104F1340005F098FF019B91
:10B6F0006064002B60D1E3630023236404F15002F3
:10B7000004F1400104F13C0005F089FF00252A46C0
:10B71000E06401212046256305F0B8FF3046FFF7BD
:10B720008BFEA06B2A462B4683424DD10023256C0D
:10B730001946A9424FD19A42274638BF1A464FF4BC
:10B74000FA5303FB02F557F8203B4FF000081B6843
:10B75000B5FBF3F54FF4004CC835414640F2E730F5
:10B760004FF47A720023E5FB0C01FAF719FD02464B
:10B770000B46384602F01CFA024618B9256B15F143
:10B78000740F2FD10298C4F8588001F073FD84F82B
:10B790005D806FF07301304606F016F8384602F00F
:10B7A0002DFA6FF07305DCE6D9F800306363002BE7
:10B7B00093D0D9F8043091E7019B1B68E363002B19
:10B7C0009AD0019B5B6898E7616B01EBC301013381
:10B7D00049680A44A8E7E06B00EBC100013140680A
:10B7E0000344A6E7002D3FF4BCAE0146306905F0E6
:10B7F0004DFFB6E6C1F80C15FFDE0023C3F808358F
:10B80000FAE700BF47E801000048E8010024F4001F
:10B8100000127A00FF083D007F841E003F420F00A7
:10B820001FA107008FD0030048E8010090D003005B
:10B8300000030050EB1703000000AD0B00093D00B2
:10B8400080841E0040420F0020A1070000F01F026C
:10B8500040090DD001280ED10A4B03EB82030A4A9E
:10B86000D3F80007024042EA8102C3F8002770477C
:10B870004FF0A043F1E702F5E072002353F82230C5
:10B88000FFDE00BF00030050F0F8FCFFF0B587B00A
:10B8900001238DF8023002238DF804306B440393AA
:10B8A0000F4601AB0DF103010024049305460291FC
:10B8B000059401F02FF90C4B984206460FD103AACC
:10B8C0003946284600F08AFFB0420BD09DF803109D
:10B8D000284601F019F96FF0040007B0F0BD6FF0D1
:10B8E0001200FAE72046F8E70000AD0B70B501231F
:10B8F00083400E4ABFF35B8FDC4352E8001F01EA2E
:10B90000040542E80056002EF7D1BFF35B8F4FF4D9
:10B91000803282400648C0F80823BFF35F8FBFF330
:10B920006F8F0B4214BF0120002070BD8C170020C8
:10B930000010014070B40E49D1E90034D01AC31888
:10B9400044F1000422F07F46C1E90034A6F500135B
:10B95000B3F5400F09D2074B1B681A0A1B069C1946
:10B96000054B42F10005C3E9004570BC03F03AB84D
:10B97000E005002090170020E805002011B3BFF378
:10B980005B8F0123104A834052E800CF4CEA030C3E
:10B9900042E800C10029F7D1BFF35B8F0B4A4FF497
:10B9A00080338340C2F80433094BBFF35B8F1B68BD
:10B9B000BFF35B8FC340DB0742BF064B4FF400323F
:10B9C000C3F80021704700BF8C1700200010014011
:10B9D0008817002000E100E00D4B1868010A0006FE
:10B9E000BFF35F8F0B4BD3F80435181841F10001FA
:10B9F000B3F5801F0AD2084BD3E90023904271EBC4
:10BA0000030303D210F1807041F10001704700BFC1
:10BA10009017002000100140E80500202DE9F04FAC
:10BA200085B016461F469DF840A00446FFF75EFF0E
:10BA30000190FFF7D1FFB04271EB070354D23E4BA8
:10BA4000301A67EB0101984271F100014FD23B4B74
:10BA500003EB0413D3E902239F4208BF96425ED052
:10BA600037494FF4803804F1500508FA04F8AD0066
:10BA7000C1F848832046ADB205F038FF26F07F4B71
:10BA800005F1804504F5A87305F58835DC464FF0CF
:10BA900003090293029A2CF07F4341F82230C1F847
:10BAA0004483D1F80435274A6FF00200C01A60447D
:10BAB00020F07F40904232D9286868B1D1F804352F
:10BAC0000393A3EB0B0020F07F40B0F5000F26D9C5
:10BAD000204605F00BFF039BBAF1000F07D109EBDD
